{
  "contractName": "Payroll",
  "abi": [
    {
      "constant": true,
      "inputs": [],
      "name": "totleSalary",
      "outputs": [
        {
          "name": "",
          "type": "uint256"
        }
      ],
      "payable": false,
      "stateMutability": "view",
      "type": "function"
    },
    {
      "constant": true,
      "inputs": [],
      "name": "totleEmployee",
      "outputs": [
        {
          "name": "",
          "type": "uint256"
        }
      ],
      "payable": false,
      "stateMutability": "view",
      "type": "function"
    },
    {
      "constant": true,
      "inputs": [],
      "name": "owner",
      "outputs": [
        {
          "name": "",
          "type": "address"
        }
      ],
      "payable": false,
      "stateMutability": "view",
      "type": "function"
    },
    {
      "constant": true,
      "inputs": [
        {
          "name": "",
          "type": "address"
        }
      ],
      "name": "employees",
      "outputs": [
        {
          "name": "addressId",
          "type": "address"
        },
        {
          "name": "salary",
          "type": "uint256"
        },
        {
          "name": "lastPayday",
          "type": "uint256"
        }
      ],
      "payable": false,
      "stateMutability": "view",
      "type": "function"
    },
    {
      "constant": false,
      "inputs": [
        {
          "name": "newOwner",
          "type": "address"
        }
      ],
      "name": "transferOwnership",
      "outputs": [],
      "payable": false,
      "stateMutability": "nonpayable",
      "type": "function"
    },
    {
      "anonymous": false,
      "inputs": [
        {
          "indexed": true,
          "name": "previousOwner",
          "type": "address"
        },
        {
          "indexed": true,
          "name": "newOwner",
          "type": "address"
        }
      ],
      "name": "OwnershipTransferred",
      "type": "event"
    },
    {
      "constant": false,
      "inputs": [],
      "name": "checkInfo",
      "outputs": [
        {
          "name": "balance",
          "type": "uint256"
        },
        {
          "name": "runway",
          "type": "uint256"
        },
        {
          "name": "employeeCount",
          "type": "uint256"
        }
      ],
      "payable": false,
      "stateMutability": "nonpayable",
      "type": "function"
    },
    {
      "constant": false,
      "inputs": [
        {
          "name": "index",
          "type": "uint256"
        }
      ],
      "name": "checkEmployee",
      "outputs": [
        {
          "name": "employeeId",
          "type": "address"
        },
        {
          "name": "salary",
          "type": "uint256"
        },
        {
          "name": "lastPayday",
          "type": "uint256"
        }
      ],
      "payable": false,
      "stateMutability": "nonpayable",
      "type": "function"
    },
    {
      "constant": false,
      "inputs": [
        {
          "name": "aid",
          "type": "address"
        }
      ],
      "name": "findEmployee",
      "outputs": [
        {
          "name": "id",
          "type": "address"
        },
        {
          "name": "salary",
          "type": "uint256"
        },
        {
          "name": "lastPayday",
          "type": "uint256"
        }
      ],
      "payable": false,
      "stateMutability": "nonpayable",
      "type": "function"
    },
    {
      "constant": false,
      "inputs": [
        {
          "name": "aid",
          "type": "address"
        },
        {
          "name": "salary",
          "type": "uint256"
        }
      ],
      "name": "updateEmployeeSalary",
      "outputs": [],
      "payable": false,
      "stateMutability": "nonpayable",
      "type": "function"
    },
    {
      "constant": false,
      "inputs": [
        {
          "name": "aid",
          "type": "address"
        },
        {
          "name": "salary",
          "type": "uint256"
        }
      ],
      "name": "addEmployee",
      "outputs": [],
      "payable": false,
      "stateMutability": "nonpayable",
      "type": "function"
    },
    {
      "constant": false,
      "inputs": [
        {
          "name": "aid",
          "type": "address"
        }
      ],
      "name": "removeEmployee",
      "outputs": [],
      "payable": false,
      "stateMutability": "nonpayable",
      "type": "function"
    },
    {
      "constant": false,
      "inputs": [],
      "name": "addFund",
      "outputs": [
        {
          "name": "",
          "type": "uint256"
        }
      ],
      "payable": true,
      "stateMutability": "payable",
      "type": "function"
    },
    {
      "constant": false,
      "inputs": [],
      "name": "calculateRunway",
      "outputs": [
        {
          "name": "",
          "type": "uint256"
        }
      ],
      "payable": false,
      "stateMutability": "nonpayable",
      "type": "function"
    },
    {
      "constant": false,
      "inputs": [],
      "name": "hasEnoughFund",
      "outputs": [
        {
          "name": "",
          "type": "bool"
        }
      ],
      "payable": false,
      "stateMutability": "nonpayable",
      "type": "function"
    },
    {
      "constant": false,
      "inputs": [
        {
          "name": "oldId",
          "type": "address"
        },
        {
          "name": "newId",
          "type": "address"
        }
      ],
      "name": "changePaymentAddress",
      "outputs": [],
      "payable": false,
      "stateMutability": "nonpayable",
      "type": "function"
    },
    {
      "constant": false,
      "inputs": [
        {
          "name": "aid",
          "type": "address"
        }
      ],
      "name": "getPaid",
      "outputs": [],
      "payable": false,
      "stateMutability": "nonpayable",
      "type": "function"
    }
  ],
  "bytecode": "0x6060604052336000806101000a81548173ffffffffffffffffffffffffffffffffffffffff021916908373ffffffffffffffffffffffffffffffffffffffff160217905550611982806100536000396000f3006060604052600436106100e6576000357c0100000000000000000000000000000000000000000000000000000000900463ffffffff1680630af7a3ac146100eb57806323fed09e146101145780634ec1951214610141578063575fe1fd1461016a57806363b8817c1461019357806385a96258146101cc5780638da5cb5b1461020357806396b0269614610258578063a2f09dfa146102c9578063bc456c42146102e7578063d06789471461033f578063d108177a146103c6578063e68bef20146103ff578063e7fd9a1314610486578063ec34ece8146104c8578063f2fde38b1461050a575b600080fd5b34156100f657600080fd5b6100fe610543565b6040518082815260200191505060405180910390f35b341561011f57600080fd5b610127610549565b604051808215151515815260200191505060405180910390f35b341561014c57600080fd5b61015461055a565b6040518082815260200191505060405180910390f35b341561017557600080fd5b61017d6105a1565b6040518082815260200191505060405180910390f35b341561019e57600080fd5b6101ca600480803573ffffffffffffffffffffffffffffffffffffffff169060200190919050506105a7565b005b34156101d757600080fd5b6101df61076e565b60405180848152602001838152602001828152602001935050505060405180910390f35b341561020e57600080fd5b6102166107a1565b604051808273ffffffffffffffffffffffffffffffffffffffff1673ffffffffffffffffffffffffffffffffffffffff16815260200191505060405180910390f35b341561026357600080fd5b61027960048080359060200190919050506107c6565b604051808473ffffffffffffffffffffffffffffffffffffffff1673ffffffffffffffffffffffffffffffffffffffff168152602001838152602001828152602001935050505060405180910390f35b6102d1610860565b6040518082815260200191505060405180910390f35b34156102f257600080fd5b61033d600480803573ffffffffffffffffffffffffffffffffffffffff1690602001909190803573ffffffffffffffffffffffffffffffffffffffff1690602001909190505061087f565b005b341561034a57600080fd5b610376600480803573ffffffffffffffffffffffffffffffffffffffff16906020019091905050610b8b565b604051808473ffffffffffffffffffffffffffffffffffffffff1673ffffffffffffffffffffffffffffffffffffffff168152602001838152602001828152602001935050505060405180910390f35b34156103d157600080fd5b6103fd600480803573ffffffffffffffffffffffffffffffffffffffff16906020019091905050610bd5565b005b341561040a57600080fd5b610436600480803573ffffffffffffffffffffffffffffffffffffffff16906020019091905050610e7e565b604051808473ffffffffffffffffffffffffffffffffffffffff1673ffffffffffffffffffffffffffffffffffffffff168152602001838152602001828152602001935050505060405180910390f35b341561049157600080fd5b6104c6600480803573ffffffffffffffffffffffffffffffffffffffff16906020019091908035906020019091905050610f0b565b005b34156104d357600080fd5b610508600480803573ffffffffffffffffffffffffffffffffffffffff169060200190919080359060200190919050506111c2565b005b341561051557600080fd5b610541600480803573ffffffffffffffffffffffffffffffffffffffff169060200190919050506114d3565b005b60015481565b60008061055461055a565b11905090565b600080600154141561056f576000905061059e565b61059b6001543073ffffffffffffffffffffffffffffffffffffffff163161162890919063ffffffff16565b90505b90565b60025481565b600080826000600460008373ffffffffffffffffffffffffffffffffffffffff1673ffffffffffffffffffffffffffffffffffffffff168152602001908152602001600020905060008160000160009054906101000a900473ffffffffffffffffffffffffffffffffffffffff1673ffffffffffffffffffffffffffffffffffffffff161415151561063557fe5b600460008673ffffffffffffffffffffffffffffffffffffffff1673ffffffffffffffffffffffffffffffffffffffff16815260200190815260200160002093503373ffffffffffffffffffffffffffffffffffffffff168460000160009054906101000a900473ffffffffffffffffffffffffffffffffffffffff1673ffffffffffffffffffffffffffffffffffffffff161415156106d157fe5b6106e9600a856002015461164390919063ffffffff16565b925042831015156106f657fe5b8284600201819055508360000160009054906101000a900473ffffffffffffffffffffffffffffffffffffffff1673ffffffffffffffffffffffffffffffffffffffff166108fc85600101549081150290604051600060405180830381858888f19350505050151561076757600080fd5b5050505050565b60008060003073ffffffffffffffffffffffffffffffffffffffff1631925061079561055a565b91506002549050909192565b6000809054906101000a900473ffffffffffffffffffffffffffffffffffffffff1681565b6000806000806003858154811015156107db57fe5b906000526020600020900160009054906101000a900473ffffffffffffffffffffffffffffffffffffffff169350600460008573ffffffffffffffffffffffffffffffffffffffff1673ffffffffffffffffffffffffffffffffffffffff16815260200190815260200160002090508060010154925080600201549150509193909250565b60003073ffffffffffffffffffffffffffffffffffffffff1631905090565b60008060009054906101000a900473ffffffffffffffffffffffffffffffffffffffff1673ffffffffffffffffffffffffffffffffffffffff163373ffffffffffffffffffffffffffffffffffffffff161415156108dc57600080fd5b826000600460008373ffffffffffffffffffffffffffffffffffffffff1673ffffffffffffffffffffffffffffffffffffffff168152602001908152602001600020905060008160000160009054906101000a900473ffffffffffffffffffffffffffffffffffffffff1673ffffffffffffffffffffffffffffffffffffffff1614151561096657fe5b836000600460008373ffffffffffffffffffffffffffffffffffffffff1673ffffffffffffffffffffffffffffffffffffffff168152602001908152602001600020905060008160000160009054906101000a900473ffffffffffffffffffffffffffffffffffffffff1673ffffffffffffffffffffffffffffffffffffffff16141515156109f157fe5b600460008873ffffffffffffffffffffffffffffffffffffffff1673ffffffffffffffffffffffffffffffffffffffff16815260200190815260200160002094506060604051908101604052808773ffffffffffffffffffffffffffffffffffffffff168152602001866001015481526020018660020154815250600460008873ffffffffffffffffffffffffffffffffffffffff1673ffffffffffffffffffffffffffffffffffffffff16815260200190815260200160002060008201518160000160006101000a81548173ffffffffffffffffffffffffffffffffffffffff021916908373ffffffffffffffffffffffffffffffffffffffff1602179055506020820151816001015560408201518160020155905050600460008873ffffffffffffffffffffffffffffffffffffffff1673ffffffffffffffffffffffffffffffffffffffff168152602001908152602001600020600080820160006101000a81549073ffffffffffffffffffffffffffffffffffffffff021916905560018201600090556002820160009055505050505050505050565b60046020528060005260406000206000915090508060000160009054906101000a900473ffffffffffffffffffffffffffffffffffffffff16908060010154908060020154905083565b60008060009054906101000a900473ffffffffffffffffffffffffffffffffffffffff1673ffffffffffffffffffffffffffffffffffffffff163373ffffffffffffffffffffffffffffffffffffffff16141515610c3257600080fd5b816000600460008373ffffffffffffffffffffffffffffffffffffffff1673ffffffffffffffffffffffffffffffffffffffff168152602001908152602001600020905060008160000160009054906101000a900473ffffffffffffffffffffffffffffffffffffffff1673ffffffffffffffffffffffffffffffffffffffff1614151515610cbd57fe5b600460008573ffffffffffffffffffffffffffffffffffffffff1673ffffffffffffffffffffffffffffffffffffffff1681526020019081526020016000209250610d7d83606060405190810160405290816000820160009054906101000a900473ffffffffffffffffffffffffffffffffffffffff1673ffffffffffffffffffffffffffffffffffffffff1673ffffffffffffffffffffffffffffffffffffffff16815260200160018201548152602001600282015481525050611661565b610dd4600460008673ffffffffffffffffffffffffffffffffffffffff1673ffffffffffffffffffffffffffffffffffffffff168152602001908152602001600020600101546001546116ed90919063ffffffff16565b600181905550600460008573ffffffffffffffffffffffffffffffffffffffff1673ffffffffffffffffffffffffffffffffffffffff168152602001908152602001600020600080820160006101000a81549073ffffffffffffffffffffffffffffffffffffffff0219169055600182016000905560028201600090555050610e6960016002546116ed90919063ffffffff16565b600281905550610e7884611706565b50505050565b600080600080600460008673ffffffffffffffffffffffffffffffffffffffff1673ffffffffffffffffffffffffffffffffffffffff16815260200190815260200160002090508060000160009054906101000a900473ffffffffffffffffffffffffffffffffffffffff1693508060010154925080600201549150838383935093509350509193909250565b6000806000809054906101000a900473ffffffffffffffffffffffffffffffffffffffff1673ffffffffffffffffffffffffffffffffffffffff163373ffffffffffffffffffffffffffffffffffffffff16141515610f6957600080fd5b836000600460008373ffffffffffffffffffffffffffffffffffffffff1673ffffffffffffffffffffffffffffffffffffffff168152602001908152602001600020905060008160000160009054906101000a900473ffffffffffffffffffffffffffffffffffffffff1673ffffffffffffffffffffffffffffffffffffffff16141515610ff357fe5b600460008773ffffffffffffffffffffffffffffffffffffffff1673ffffffffffffffffffffffffffffffffffffffff168152602001908152602001600020935061104a600160025461164390919063ffffffff16565b60028190555061106b670de0b6b3a76400008661189e90919063ffffffff16565b92506060604051908101604052808773ffffffffffffffffffffffffffffffffffffffff16815260200184815260200142815250600460008873ffffffffffffffffffffffffffffffffffffffff1673ffffffffffffffffffffffffffffffffffffffff16815260200190815260200160002060008201518160000160006101000a81548173ffffffffffffffffffffffffffffffffffffffff021916908373ffffffffffffffffffffffffffffffffffffffff16021790555060208201518160010155604082015181600201559050506111518360015461164390919063ffffffff16565b6001819055506003805480600101828161116b91906118d9565b9160005260206000209001600088909190916101000a81548173ffffffffffffffffffffffffffffffffffffffff021916908373ffffffffffffffffffffffffffffffffffffffff16021790555050505050505050565b60008060009054906101000a900473ffffffffffffffffffffffffffffffffffffffff1673ffffffffffffffffffffffffffffffffffffffff163373ffffffffffffffffffffffffffffffffffffffff1614151561121f57600080fd5b826000600460008373ffffffffffffffffffffffffffffffffffffffff1673ffffffffffffffffffffffffffffffffffffffff168152602001908152602001600020905060008160000160009054906101000a900473ffffffffffffffffffffffffffffffffffffffff1673ffffffffffffffffffffffffffffffffffffffff16141515156112aa57fe5b600460008673ffffffffffffffffffffffffffffffffffffffff1673ffffffffffffffffffffffffffffffffffffffff168152602001908152602001600020925061136a83606060405190810160405290816000820160009054906101000a900473ffffffffffffffffffffffffffffffffffffffff1673ffffffffffffffffffffffffffffffffffffffff1673ffffffffffffffffffffffffffffffffffffffff16815260200160018201548152602001600282015481525050611661565b6113c1600460008773ffffffffffffffffffffffffffffffffffffffff1673ffffffffffffffffffffffffffffffffffffffff168152602001908152602001600020600101546001546116ed90919063ffffffff16565b6001819055506113e2670de0b6b3a76400008561189e90919063ffffffff16565b600460008773ffffffffffffffffffffffffffffffffffffffff1673ffffffffffffffffffffffffffffffffffffffff1681526020019081526020016000206001018190555061147f600460008773ffffffffffffffffffffffffffffffffffffffff1673ffffffffffffffffffffffffffffffffffffffff1681526020019081526020016000206001015460015461164390919063ffffffff16565b60018190555042600460008773ffffffffffffffffffffffffffffffffffffffff1673ffffffffffffffffffffffffffffffffffffffff168152602001908152602001600020600201819055505050505050565b6000809054906101000a900473ffffffffffffffffffffffffffffffffffffffff1673ffffffffffffffffffffffffffffffffffffffff163373ffffffffffffffffffffffffffffffffffffffff1614151561152e57600080fd5b600073ffffffffffffffffffffffffffffffffffffffff168173ffffffffffffffffffffffffffffffffffffffff161415151561156a57600080fd5b8073ffffffffffffffffffffffffffffffffffffffff166000809054906101000a900473ffffffffffffffffffffffffffffffffffffffff1673ffffffffffffffffffffffffffffffffffffffff167f8be0079c531659141344cd1fd0a4f28419497f9722a3daafe3b4186f6b6457e060405160405180910390a3806000806101000a81548173ffffffffffffffffffffffffffffffffffffffff021916908373ffffffffffffffffffffffffffffffffffffffff16021790555050565b600080828481151561163657fe5b0490508091505092915050565b600080828401905083811015151561165757fe5b8091505092915050565b60006116a3600a6116956116828560400151426116ed90919063ffffffff16565b856020015161189e90919063ffffffff16565b61162890919063ffffffff16565b9050816000015173ffffffffffffffffffffffffffffffffffffffff166108fc829081150290604051600060405180830381858888f1935050505015156116e957600080fd5b5050565b60008282111515156116fb57fe5b818303905092915050565b6000806000809150600090505b6003805490508110156117a3578373ffffffffffffffffffffffffffffffffffffffff1660038281548110151561174657fe5b906000526020600020900160009054906101000a900473ffffffffffffffffffffffffffffffffffffffff1673ffffffffffffffffffffffffffffffffffffffff16141561179657809250600191505b8080600101915050611713565b8115611898576003838154811015156117b857fe5b906000526020600020900160006101000a81549073ffffffffffffffffffffffffffffffffffffffff021916905560036001600380549050038154811015156117fd57fe5b906000526020600020900160009054906101000a900473ffffffffffffffffffffffffffffffffffffffff1660038481548110151561183857fe5b906000526020600020900160006101000a81548173ffffffffffffffffffffffffffffffffffffffff021916908373ffffffffffffffffffffffffffffffffffffffff16021790555060038054809190600190036118969190611905565b505b50505050565b60008060008414156118b357600091506118d2565b82840290508284828115156118c457fe5b041415156118ce57fe5b8091505b5092915050565b815481835581811511611900578183600052602060002091820191016118ff9190611931565b5b505050565b81548183558181151161192c5781836000526020600020918201910161192b9190611931565b5b505050565b61195391905b8082111561194f576000816000905550600101611937565b5090565b905600a165627a7a72305820286c70b1e2538d370650ef57696e7d166ef2c795830ce73e6564d839229140b00029",
  "source": "pragma solidity ^0.4.14;\n\nimport \"./SafeMath.sol\";\nimport \"./Ownable.sol\";\n\ncontract Payroll is Ownable {\n    // 可调整薪水、地址  \n    using SafeMath for uint;\n    uint constant payDuration = 10 seconds;\n    uint public totleSalary;\n    uint public totleEmployee;\n    address[] EmployeeList;\n    \n    struct Employee {\n        address addressId;\n        uint salary;\n        uint lastPayday;\n    }\n    \n    mapping(address => Employee) public employees; \n\n    function checkInfo( ) returns (uint balance, uint runway, uint employeeCount){\n        balance = this.balance;\n        runway = calculateRunway();\n        employeeCount = totleEmployee;\n    }\n\n    function checkEmployee(uint index) returns (address employeeId, uint salary, uint lastPayday) {\n        employeeId = EmployeeList[index];\n        var employee = employees[employeeId];\n        salary = employee.salary;\n        lastPayday = employee.lastPayday;\n    }\n\n    function findEmployee(address aid) returns(address id,uint salary,uint lastPayday){\n        var employee = employees[aid];\n        id = employee.addressId;\n        salary = employee.salary;\n        lastPayday = employee.lastPayday;\n        return (id,salary,lastPayday);\n    }\n    \n    function updateEmployeeSalary(address aid, uint salary) onlyOwner employeeNotExits(aid) {\n        var employee = employees[aid];\n        _partialPaid(employee);\n        totleSalary = totleSalary.sub(employees[aid].salary);\n        employees[aid].salary = salary.mul(1 ether);\n        totleSalary = totleSalary.add(employees[aid].salary);\n        employees[aid].lastPayday = now;\n    }\n    \n    function addEmployee(address aid,uint salary) onlyOwner employeeExits(aid){\n        var employee = employees[aid];\n        totleEmployee = totleEmployee.add(1);\n        uint newSalary = salary.mul(1 ether) ;\n        employees[aid] = Employee(aid,newSalary,now);\n        totleSalary = totleSalary.add(newSalary);\n        EmployeeList.push(aid);\n    }\n\n    function _partialPaid (Employee employee) private{\n        uint payment = employee.salary.mul(now.sub(employee.lastPayday)).div(payDuration);\n        employee.addressId.transfer(payment);\n    }\n    \n    function removeEmployee(address aid) onlyOwner employeeNotExits(aid){\n        var employee = employees[aid];\n        _partialPaid(employee);\n        totleSalary = totleSalary.sub(employees[aid].salary);\n        delete employees[aid];\n        totleEmployee = totleEmployee.sub(1);\n        _removeEmployeeList(aid);\n    }\n\n    function _removeEmployeeList(address aid) private{\n        uint index;\n        bool has = false;\n        for (uint i = 0; i < EmployeeList.length; i ++ ){\n            if (EmployeeList[i] == aid) {\n                index = i;\n                has = true;\n            }\n        }\n        if (has) {\n            delete EmployeeList[index];\n            EmployeeList[index] = EmployeeList[EmployeeList.length -1];\n            EmployeeList.length --;\n        }\n    }\n    \n    function addFund() payable returns (uint){\n        return this.balance;\n    }\n    \n    function calculateRunway() returns (uint){\n        if (totleSalary == 0) return 0;\n        return  this.balance.div(totleSalary);\n    }\n    \n    function hasEnoughFund() returns (bool){\n        return calculateRunway() > 0;\n    }\n    \n    modifier employeeExits(address aid) {\n        var employee = employees[aid];\n        assert(employee.addressId == 0x0);\n        _;\n    }\n    \n    modifier employeeNotExits(address aid) {\n        var employee = employees[aid];\n        assert(employee.addressId != 0x0);\n        _;\n    }\n    \n    function changePaymentAddress(address oldId, address newId) onlyOwner employeeExits(oldId) employeeNotExits(newId) {\n        var employee = employees[oldId];\n        employees[newId] = Employee(newId, employee.salary, employee.lastPayday);\n        delete employees[oldId];\n    }\n    \n    function getPaid(address aid) employeeNotExits(aid){\n        var employee = employees[aid];\n        assert(employee.addressId == msg.sender);\n        uint nextPayday = employee.lastPayday.add(payDuration);\n        assert(nextPayday < now);\n        employee.lastPayday = nextPayday;\n        employee.addressId.transfer(employee.salary);\n    }\n}",
  "sourcePath": "/Users/wuguanxi/eth/payroll/contracts/Payroll.sol",
  "compiler": {
    "name": "solc",
    "version": "0.4.19+commit.c4cbbb05.Emscripten.clang"
  },
  "schemaVersion": "2.0.0",
  "updatedAt": "2018-03-28T11:52:16.925Z"
}